:020000040040BA
:10000000883E0020312140002D2140002D2140005C
:100010002D2140002D2140002D2140000000000036
:100020000000000000000000000000002D21400042
:100030002D214000000000002D2140004D414000D6
:100040002D2140002D2140002D2140002D21400078
:100050002D2140002D2140002D2140002D21400068
:100060002D2140002D2140002D214000151F400072
:10007000311F40004D1F40002D2140002D21400028
:100080002D2140002D2140002D2140002D21400038
:100090002D2140002D2140002D2140002D21400028
:1000A0002D2140002D2140002D2140002D21400018
:1000B0002D2140002D2140002D2140002D21400008
:1000C0002D2140002D2140002D2140002D214000F8
:1000D00008B50548054B1B1A062B00D808BD044B74
:1000E000002BFBD09847F9E7504C4000534C4000A0
:1000F0000000000008B50748074B1B1A9B1003EBD4
:10010000D373591000D108BD044A002AFBD0904790
:10011000F9E700BF504C4000504C40000000000088
:1001200010B5064C237843B9FFF7D2FF044B13B147
:100130000448AFF300800123237010BD3C0400206D
:1001400000000000504C400008B5084B1BB10848A7
:100150000849AFF300800848036813B1074B03B1A7
:100160009847BDE80840FFF7C5BF00BF000000008A
:10017000504C400040040020504C40000000000063
:1001800038B541F25043C4F20E034FF400425A60B6
:100190004FF000004FF0405141F64554C0F240048A
:1001A000A0474FF006004FF04051A0474FF0050028
:1001B0004FF04051A0474FF00A05C2F600054FF03E
:1001C00013002946A0474FF016002946A0474FF0DC
:1001D00017002946A0474FF014002946A0474FF0CA
:1001E0000F002946A0474FF00E002946A0474FF0C8
:1001F0000D002946A0474FF018002946A0474FF0B0
:1002000010002946A0474FF00C004FF04051A04786
:100210004FF00B004FF04051A0474FF00A004FF055
:100220004051A0474FF009004FF04051A0474FF018
:100230001C004FF0C051A0474FF01D004FF0C051BF
:10024000A0474FF01E004FF0C051A0474FF01F00D5
:100250004FF0C051A0474FF01A004FF0C051A047D7
:100260004FF01B004FF0C051A04738BD10B50446F9
:1002700040F25163C0F240039847012805D038B1DD
:1002800002280CBF0220012010BD4FF0030010BD5A
:10029000204641F2FD03C0F24003984700F00300FE
:1002A00000280CBF0220002010BD00BF08B54FF091
:1002B000000040F26D23C0F24003984708BD00BF24
:1002C00008B54FF0010040F26D23C0F2400398479B
:1002D00008BD00BF38B504460D4641F22913C0F2EF
:1002E000400398474FEA400000F1FF302860204665
:1002F00040F26D23C0F24003984738BD08B501466F
:100300004FF0000040F2D523C0F24003984708BDEB
:1003100008B501464FF0010040F2D523C0F240037A
:10032000984708BD08B541F25513C0F240039847FD
:1003300008BD00BF08B54FF0000040F22533C0F201
:100340004003984708BD00BF08B54FF0010040F2D8
:100350002533C0F24003984708BD00BF4FF00000AE
:10036000704700BF08B54FF0000040F25D33C0F2A7
:100370004003984708BD00BF08B54FF0010040F2A8
:100380005D33C0F24003984708BD00BF10B5144666
:100390004FF0010241F25D13C0F24003984720B1D3
:1003A00002280CBF0220012010BD20464FF00101A1
:1003B00041F27123C0F24003984740B941F2A923AA
:1003C000C0F240039847003018BF012010BD4FF025
:1003D000010010BD08B503460A464FF0000019465B
:1003E00040F28D33C0F24003984708BD08B503467C
:1003F0000A464FF00100194640F28D33C0F2400327
:10040000984708BD10B514464FF0010241F2293358
:10041000C0F24003984720B102280CBF02200120FF
:1004200010BD20464FF0010141F2F933C0F2400304
:10043000984740B941F23143C0F240039847003039
:1004400018BF012010BD4FF0010010BD08B50346D4
:100450000A464FF00000194640F20543C0F240033F
:10046000984708BD08B503460A464FF001001946F3
:1004700040F20543C0F24003984708BD10B540F272
:100480005C43C2F200031A6840F26241C2F200010A
:10049000937F08781168527B003318BF012341F223
:1004A000A974C0F24004A04710BD00BF10B50028D9
:1004B00036D140F26443C2F200039B7AA3F10303F6
:1004C000DBB2012B11D840F26443C2F200034FF0BB
:1004D00002029A724FF4D452C0F206021A604FF030
:1004E00001025A734FF000029A7740F26243C2F25F
:1004F00000034FF000021A7040F25C43C2F20003A6
:1005000040F26444C2F200041C6040F27D43C0F239
:1005100040039847A07A022814BF0020012010BD94
:100520004FF0040010BD00BF70B582B0069CB4F55A
:10053000007F08BF002449F23536C0F2010641F2BF
:100540003535C0F201054FEA017141EA422242EA23
:10055000C07141EA83619DF81C300093002814BFEC
:10056000304628462143A2B24FF0010341F6A904C8
:10057000C0F24004A04702B070BD00BF08B540F211
:100580006243C2F200031B7833B94FF0000041F61A
:100590001D03C0F24003984708BD00BF10B5029C80
:1005A0004FEA422242EA017141EAC07040EAC36365
:1005B000217841F23430194341F64503C0F240033B
:1005C000984740B141F67503C0F240039847207048
:1005D0004FF0010010BD4FF0000010BD08B540F213
:1005E0005C43C2F200031B68198941F609304FEAE7
:1005F000014141F64503C0F24003984770B140F213
:100600005C43C2F20003186800F10E0041F67D035E
:10061000C0F2400398474FF0010008BD4FF00000C2
:1006200008BD00BF08B540F26443C2F200034FF0BA
:1006300004029A7240F26243C2F200034FF0FF02DA
:100640001A7041F26573C0F24003984708BD00BFBD
:100650002DE9F04F95B040F2AD43C0F2400398470A
:100660000446012806D040F27D53C0F2400398476B
:1006700000F039BD40F25C43C2F200031B684FF04A
:100680000102DA724FF000051D731D8141F621034E
:10069000C0F2400398474FF48040294641F6450395
:1006A000C0F240039847002800F09E8445F20850AD
:1006B0004FF4D57141F64503C0F240039847002836
:1006C00000F0A08441F67503C0F240039847B0F1F2
:1006D000FF3F00F09A844FEA00504FEA1050B0F507
:1006E000D57F08BF012700F0928400F07DBC41F661
:1006F0007503C0F240039847014610F0E04F00F048
:10070000928441F2893544F2055841F64506C0F21B
:10071000400641F67509C0F24009404601F4FC115B
:10072000B047002800F06084C847011E03DB013D8C
:10073000F3D100F059BC11F0006F40F25C43C2F2FB
:1007400000031B6814BF05220422DA7200F06BBCA0
:1007500040F6350541F237194FF0000841F64506DD
:10076000C0F240064FF4004A41F6750BC0F2400B50
:1007700048464146B047002800F061845146C4F223
:100780001F0144F22950002F08BF4FF4FC11B0475D
:10079000002800F05484D84700280EDA10F0804F6B
:1007A00000F0788440F25C43C2F200031B68DA7AFE
:1007B00042F00802DA7200F06DBC013DD8D100F0C1
:1007C0003EBC41F269054FF40046C4F21F0644F2F4
:1007D000015841F64507C0F2400741F67509C0F2DD
:1007E000400940463146B847002800F06884C847B1
:1007F00000280DDA00F0C040B0F1804F40F0558481
:10080000A24B1B68DA7A42F00802DA7200F04DBCA3
:10081000013DE6D100F053BC9C4B1B684FF0010238
:100820001A8141F203104FF48031994B9847002808
:1008300000F02081974B9847002800F01E81934BD1
:100840001B689A7BC2F3830202F1FF32032A03D8AA
:10085000DFE802F0060A0E124FF012021A730EE0E1
:100860004FF014021A730AE04FF022021A7306E0E6
:100870004FF030021A7302E04FF040021A735A7CB4
:1008800002F00700844951F820104FF47A7000FB01
:1008900001F1C2F3C302814850F8222002FB01F2A9
:1008A0001A60997D187D5A7D4FEA820242EA8022C1
:1008B00042EAA1124FEA02524FEA125112F5801F8A
:1008C00015D0187EDA7D4FEA420242EAE01201F1C9
:1008D000010102F0070202F1020201FA02F1DA7CE0
:1008E00002F00F0201FA02F24FEA92225A601989CD
:1008F00043F207104FEA0141654B9847002800F08A
:10090000BF80624B1B681B7B3F2B40F29B804FF0EC
:100910000001009141F20810C0F208004FF400728B
:100920004FF001035E4DA847002800F0CB834FF045
:1009300000055C4E02A8B047002800F0C38305F113
:100940000105ADB2322DF5D1029B03F00203DEB2F8
:100950004E4B1B689A7D197D5B7D4FEA830343EA0A
:10096000812343EAA2134FEA035313F5801F1AD1E0
:100970004C4F03A8B847002800F0A48305F10105F7
:10098000ADB2352DF5D9414B1A68039B4FEA53039D
:10099000536008E003A8B847002800F0938305F1EE
:1009A0000105ADB200E03F4F7F2DF3D98DE33E4B03
:1009B00018783E4B9847054604280BD04FF4007139
:1009C000C0F2B7114FF00003C0F2B713082818BFE8
:1009D000194603E04FF48071C0F2B71143F20610DC
:1009E0002B4B9847002800F07883314B984710F044
:1009F000800F40F07283254B1B685D732D4B984729
:100A00002D4B984730B32EB343F206104FF480714C
:100A1000C0F2B9311E4B9847002800F06183244B87
:100A2000984710F0800F40F05B83184B1B684FF025
:100A300001029A774FF4EA42C0F219321A601D4B54
:100A4000984707E01B4B984704E040463946B047BB
:100A500040B118E04FF00A0541F210184FF400774A
:100A60000B4EF2E705F1FF3515F0FF05EDD14FF024
:100A70000000AAE24FF00000A7E24FF00000A4E25D
:100A80004FF00000A1E24FF001009EE25C04002064
:100A900045184000DD054000F4444000104540008A
:100AA000A91840007D1940006204002095174000FD
:100AB000751840007D044000A117400045F6023043
:100AC0004FF0000141F64503C0F24003984700286B
:100AD00000F08A8245F203104FF0000141F6450311
:100AE000C0F240039847002800F07E8240F25C4547
:100AF000C2F200052E6841F67503C0F24003984724
:100B00004FEA104030812B68DB7A13F0010F56D08A
:100B100040F2DD53C0F240039847002800F06482A1
:100B20002B68597C44F2F442C0F2400201F0070005
:100B300052F820204FF47A7000FB02F044F2B442E5
:100B4000C0F24002C1F3C30152F8212002FB00F2BF
:100B50001A609A7B92090FD0DA7D987D597D4FEA11
:100B6000014141EA00210A4322F4400202F101025C
:100B70004FEA42225A6022E0997D187D5A7D4FEA61
:100B8000820242EA802242EAA112187ED97D4FEA0F
:100B9000410141EAE0114FEA02524FEA125202F1DA
:100BA000010201F0070101F1020102FA01F1DA7C10
:100BB00002F00F0201FA02F24FEA92225A6040F26A
:100BC0005C43C2F200031B68198943F207104FEA25
:100BD000014141F64503C0F240039847002800F068
:100BE000038240F25C43C2F200031B68DA7A12F01F
:100BF000010F4ED0198941F237104FEA014141F6F9
:100C00004503C0F240039847002800F0ED814FF003
:100C10000103009341F23310C0F208004FF00001CD
:100C20004FF008024C4DA847002800F0DD8104A8D1
:100C30004FF00101494B9847002800F0D581484BFF
:100C40009847002800F0D0819DF8103003F00F0382
:100C5000012B09D013B1022B16D10BE0414B1B68BD
:100C60004FF010021A7314E03E4B1B684FF01A024B
:100C70001A730EE09DF81230DB093A4B1B6814BF63
:100C8000302220221A7304E0364B1B684FF010020A
:100C90001A7340F25C43C2F200031B68DB7A03F074
:100CA0000403DBB2002B00F095804FF000010391AC
:100CB0004FF0030300934FF00103019308464FF0F8
:100CC000090240F22955C0F24005A847002800F06B
:100CD0008B8103A84FF00101204B9847002800F0BA
:100CE00083811F4B9847002800F07E81039DDFF829
:100CF00078801A4F1A4E4FF0030300934FF0010310
:100D000001934FF0000001462A46C047002800F03A
:100D10006B8104A84FF00101B847002800F06481FE
:100D2000B047002800F060819DF81030FF2B00F0E4
:100D30005B81222B02D19DF81230BBB19DF811309E
:100D4000002B00F0518103F10203ED18039B03F522
:100D500080739D42CFD947E1A9184000111A400085
:100D60005D1A40005C040020290540004FF0060396
:100D700000934FF0010301934FF0000001462A4613
:100D8000B94DA847002800F02F8104A84FF00101B9
:100D9000B64B9847002800F02781B54B98470028AC
:100DA00000F022819DF81530322B28BF3223B14A42
:100DB000126803F00700B04951F820104FF47A7020
:100DC00000FB01F1C3F3C303AC4850F8233003FB2D
:100DD00001F3136040F26243C2F20003187841F25B
:100DE0009573C0F240039847032859D940F25C43F9
:100DF000C2F200031B68DB7A03F00403DBB233B3F7
:100E000003AB00934FF0000001464FF00802034689
:100E10009B4DA847002800F0E7809DF90C30002B7F
:100E200015DA14AB4FF0020203F8442D00934FF093
:100E300001004FF000014FF007020346A8470028C9
:100E400000F0D2808B4B1B684FF004025A7340F2C3
:100E50005C43C2F200031B68DA7A12F0010F1AD069
:100E6000198941F237104FEA014141F64503C0F2BA
:100E700040039847002800F0B78041F206104FF079
:100E80000201804B9847002800F0AE80794B1B6828
:100E90004FF004025A7340F27D43C0F2400398477A
:100EA00041F2A173C0F24003984700287ED040F27F
:100EB0005C43C2F200031B68DB7A03F00403DBB27D
:100EC00053B303AB00934FF0000001464FF0130201
:100ED00003466B4DA847002800F086809DF80C3033
:100EE00013F0010F18D014AB4FF0020203F8442D99
:100EF00000934FF001004FF000014FF01302034642
:100F0000A847002870D05B4B1B684FF001029A770E
:100F10001A684FEA42021A6040F25C43C2F20003D0
:100F20001B68DA7A12F0010F3BD01B7B102B38D9EB
:100F30004FF00103009341F20610C0F208004FF693
:100F40000171C8F2FF014FF040024F4DA847002841
:100F50004AD004A84FF00101444B9847002843D0E1
:100F6000434B984700283FD0484B984710F0800FDC
:100F70003AD19DF8203003F00F030F2B11D09DF8CC
:100F80002D309DF82C2053EA02222DD1404B98475A
:100F9000384B1B684FF001029A771A684FEA4202F9
:100FA0001A6040F27D43C0F24003984740F25C4330
:100FB000C2F200031B68DB7A13F0010F06D041F286
:100FC00010104FF400712F4B984768B140F25C430A
:100FD000C2F200031B684FF000029A7240F27D5388
:100FE000C0F2400398477EE040F25C43C2F2000347
:100FF0001B684FF003049C7240F27D53C0F2400323
:10100000984770E04FF0000701E04FF0000744F20E
:1010100005504FF0000141F64503C0F240039847E8
:1010200000287FF464AB40F25C43C2F200031B680B
:10103000DB7A13F0010F3FF44DADFFF789BB40F2AF
:101040005C43C2F200031B684FF00202DA724FF4F5
:1010500080404FF0000141F64503C0F2400398473D
:1010600000287FF4AEABB0E729054000111A40001C
:101070005D1A40005C040020F4444000B444400089
:101080009D05400045184000A91840007518400013
:101090002118400040F25C43C2F200031B68DB7A77
:1010A00013F0010F7FF40AAD14E545F602304FF05E
:1010B00000010F4B984700287FF4AEAB85E74FF057
:1010C000000082E74FF000007FE70A4B18780A4BD8
:1010D000984703283FF66BAC92E44FF0000074E7AA
:1010E0004FF0000071E7204615B0BDE8F08F00BF5B
:1010F00045184000620400209517400008B540F2F2
:10110000AD43C0F24003984758B940F27D53C0F256
:101110004003984740F25C43C2F200031B68D87A50
:1011200008BD4FF0000008BD08B540F2AD43C0F265
:101130004003984758B940F27D53C0F240039847A6
:1011400040F25C43C2F200031B68586808BD4FF0D0
:10115000000008BD4FF00000704700BF2DE9F04FC0
:1011600083B08B46924640F2AD43C0F240039847AD
:101170008146002878D140F64154C0F2030440F281
:101180005C47C2F2000741F20D1641F64505C0F278
:10119000400541F67508C0F240083B6819893046A1
:1011A0004FEA0141A84700283DD0C04710F4807F96
:1011B00041D1013CF1D136E04FEA4B21FFE74FF03E
:1011C000010200924FF40072534641F6A904C0F2A6
:1011D0004004A04738B940F27D53C0F2400398471D
:1011E0004FF0050940E041F67503C0F2400398470F
:1011F0004FF00003CEF2584303403BB140F27D5321
:10120000C0F2400398474FF005092DE040F26043DB
:10121000C2F20003A3F800A040F25843C2F2000358
:10122000A3F800A020E040F27D53C0F240039847AD
:101230004FF0050918E041F21110C0F2080041F228
:101240001213C0F21003BAF1010F88BF184640F222
:101250005C43C2F200031B68DB7A03F00803DBB2D5
:101260005946002BABD1A7E7484603B0BDE8F08F45
:1012700010B50C4641F61123C0F24003984748B917
:1012800040F26043C2F200034FF000021A804FF0B8
:10129000050010BD40F26043C2F200031A88141B1F
:1012A0001C804FF0000010BD08B541F65D23C0F270
:1012B00040039847002830D040F26043C2F2000358
:1012C0001B88002B2CD140F25843C2F200031B882C
:1012D000012B07D140F27D53C0F2400398474FF0F5
:1012E000000008BD43F20C104FF0000141F6450329
:1012F000C0F24003984740B943F20C104FF0000190
:1013000041F64503C0F24003984740F27D53C0F2D6
:10131000400398474FF0000008BD4FF0050008BD9E
:101320004FF0000008BD00BFF0B583B005460F4682
:10133000164640F2AD44C0F24004A04704460028DF
:1013400057D1284641F25515C0F24005A84738B19B
:1013500040F27D53C0F2400398474FF0070448E045
:1013600049F21810C0F2080049F21913C0F2100334
:10137000012E88BF184640F25C43C2F200031B688E
:10138000DB7A03F00803DBB24FEA472103B13946A9
:101390004FF0010300934FF40072334641F6A90564
:1013A000C0F24005A84738B940F27D53C0F240036F
:1013B00098474FF005041CE041F67503C0F2400366
:1013C00098474FF00003CEF2584303403BB140F240
:1013D0007D53C0F2400398474FF0050409E040F206
:1013E0006043C2F200031E8040F25843C2F2000381
:1013F0001E80204603B0F0BD10B50C4641F6ED232B
:10140000C0F24003984748B940F26043C2F200037B
:101410004FF000021A804FF0050010BD40F260430B
:10142000C2F200031A88141B1C804FF0000010BD8C
:1014300008B541F63D33C0F24003984700282FD04D
:1014400040F26043C2F200031B88002B2BD140F214
:101450005843C2F200031B88012B07D140F27D5391
:10146000C0F2400398474FF0000008BD43F20C1053
:101470004FF0000141F64503C0F24003984738B9E8
:1014800040F27D53C0F2400398474FF0050008BD7D
:1014900040F27D53C0F2400398474FF0000008BD72
:1014A0004FF0050008BD4FF0000008BD10B54FF427
:1014B0006060C0F2277042F2C933C0F2400398471F
:1014C0004FF000004FF03E0141F6F173C0F24003CF
:1014D000984742F26104C0F24004A0470028FCD0C3
:1014E00042F27103C0F2400398474FF48063C4F2A4
:1014F0000E0343F60172C2F209029A6242F28104BB
:10150000C0F24004A0470028FCD04FF0000041F694
:101510006973C0F24003984742F21123C0F24003BE
:10152000984710BD08B5012809D844F25053C0F2BD
:101530004003C0EBC00053F82030984708BD4FF07F
:10154000010008BD08B501280BD844F25053C0F281
:101550004003C0EBC00003EB80035B68084698477C
:1015600008BD4FF0010008BD01288CBF00200120FC
:10157000704700BF08B501280AD844F25053C0F2A2
:101580004003C0EBC00003EB80039B68984708BD95
:101590004FF0010008BD00BF08B501280CD844F287
:1015A0005053C0F24003C0EBC00003EB80031B6943
:1015B00008461146984708BD4FF0010008BD00BF1E
:1015C0004FF001030360704721B1436843F01003FB
:1015D000436003E0436823F0100343604FF00000D2
:1015E000704700BF006B704701627047436843F467
:1015F00080134360704700BF21B1436843F020036C
:10160000436003E0436823F02003436022B1436852
:1016100043F04003436003E0436823F0400343602A
:101620004FF00000704700BF10B4446824F07C54B1
:1016300024F47F444FEA016144EA114412B144F4B6
:10164000001401E024F400144FEA036303F07C5318
:101650001C4344604FF0000010BC704701299FBF3D
:10166000012303FA01F10161002088BF01207047C6
:10167000C0F894104FF00000704700BF70B44FF0F6
:1016800080435D689C68D868D9695A6D4FF08006C0
:101690001E605D609C60D860D9615A654FF005029C
:1016A0001A6070BC704700BF08B501F03F031843D3
:1016B00011F4807F0CD011F4006F18BF40F48450F7
:1016C00006D111F4005F14BF40F4865040F48250FC
:1016D00011F4804F18BF40F400604FF080431A614E
:1016E0005861184601F48052036C52B113F41F0F75
:1016F00012D041F27D63C0F2400398474FF00000E2
:1017000008BD13F41B0F07D041F27D63C0F2400304
:1017100098474FF0000008BD13F0010FE4D011F41A
:10172000005F14D14FF0010008BD0A6C013B07D1E6
:1017300041F27D63C0F2400398474FF0000008BDBE
:1017400002F03002202AF0D14FF0010008BD4FF026
:1017500080431A6C44F24023C0F20F034FF08041E3
:10176000EEE700BF08B54FF0120042F29103C0F25D
:10177000400398474FF080434FF072029A60DA615D
:101780004FF011025A654FF4E0625A604FF00502C3
:101790001A6008BD00280CBF04200020704700BF5D
:1017A0004FF00100704700BF33B14FF08043586DD8
:1017B00040F48070586505E04FF08043586D20F488
:1017C000807058654FF0000081B14FEA41014FF43D
:1017D0006063C0F22773B3FBF1F001FB103109B174
:1017E00000F1010010B100F1FF30FFE74FF080433E
:1017F000596821F0FF0159605968C0B20843586028
:10180000042A08BF802204D0082A0CBFC02200226C
:10181000FFE74FF08043DA60704700BF704700BFBA
:101820004FF080435A6822F460525A604FF0000231
:101830001A614FF410625A611A46136C13F0010FCB
:10184000FBD0704710B504460A464FF080435968F4
:1018500021F460515960596821F4004159604FF0FA
:1018600000009861214641F2A963C0F24003984705
:1018700010BD00BF4FF08043186A704710B400F1EC
:1018800010044FF080410B6A4FEA136202704FEA76
:10189000134242704FEA13228270C37000F10400B9
:1018A0008442F0D110BC704770B504460E469DF8D6
:1018B000101031B14FF08041486840F4004048605A
:1018C00005E04FF08041486820F4004048604FF048
:1018D0008040416841F4C051416012F0030F1DBFC8
:1018E0000146486840F400504FF0804104BF48680A
:1018F00020F40050486004F4004000280CBF4FF46E
:10190000A0204FF4803014F4803F05D040F4001044
:101910004FF080418A6118E043EA02454FF0804170
:101920008D6114F4003F18BF40F420100DD114F461
:10193000802F18BF40F4801007D114F4002F04D179
:1019400014F4801F18BF40F4002040F28845C2F212
:1019500000054FF00001296040F28445C2F2000505
:101960002A8040F28645C2F200052B80214632468D
:1019700041F2A963C0F24003984770BD08B54FF02B
:1019800080414FF00002CCF260020B6C134207D092
:1019900041F27D63C0F2400398474FF0000008BD5C
:1019A00013F0020FF1D04FF080431B6B036040F245
:1019B0008843C2F200031A6802F104021A6040F27E
:1019C0008643C2F20003198840F28443C2F2000346
:1019D0001B8803FB01F39A4216D34FF080414FF06E
:1019E0000002CCF260020B6C134207D041F27D631F
:1019F000C0F2400398474FF0000008BD13F0006F9D
:101A0000F1D04FF0010008BD4FF0010008BD00BF4C
:101A100040F28443C2F200031B8803FB01F14FF044
:101A20008043C3F800015B6813F4005F0CBF8A08B1
:101A30000A464FF08043C3F804214FF00002C3F878
:101A400014214FF00100C3F8200140F28843C2F294
:101A500000031A6889181960704700BF08B54FF075
:101A600080414FF00002CCF260020B6C13420DD0AB
:101A700040F202224FF08043C3F8202141F27D63FF
:101A8000C0F2400398474FF0000008BD13F4804FA8
:101A9000EBD040F28643C2F200031A8840F284433E
:101AA000C2F200031B8803FB02F240F28843C2F239
:101AB00000031B689A4216D84FF080414FF0000295
:101AC000CCF260020B6C134207D041F27D63C0F28E
:101AD000400398474FF0000008BD13F0006FF1D0AD
:101AE0004FF0010008BD4FF0010008BD40F28443F3
:101AF000C2F200031B8803FB01F14FF08043C3F8DF
:101B000008015B6813F4005F0CBF8A080A464FF0B7
:101B10008043C3F80C214FF00002C3F81C214FF49E
:101B20008072C3F8202140F28843C2F200031A6891
:101B3000891819604FF00100704700BF08B54FF0D9
:101B400080414FF00002CCF260020B6C13420DD0CA
:101B500041F27D63C0F24003984740F202224FF009
:101B60008043C3F820214FF0000008BD13F4004F5C
:101B7000EBD040F28643C2F200031A8840F284435D
:101B8000C2F200031B8803FB02F240F28843C2F258
:101B900000031B689A4216D84FF080414FF00002B4
:101BA000CCF260020B6C134207D041F27D63C0F2AD
:101BB000400398474FF0000008BD13F0200FF1D00C
:101BC0004FF0010008BD4FF0010008BD0AB14166A9
:101BD00070470166704700BF10B44264B1F1C05F46
:101BE0002FD008D8B1F1006F14D0B1F1805F1ED0B2
:101BF000002937D035E0B1F1205F33D003D8B1F1FF
:101C0000005F2ED127E0B1F1405F2BD0B1F1605FD2
:101C100027D127E0016F046F6FEA020321401940CA
:101C20000167416F446F21400B40436719E0036F28
:101C300013430367436F416F0B4023EA020343677B
:101C40000FE0036F016F0B4023EA02030367436F4A
:101C50001343436705E0036F13430367436F134365
:101C60004367426010BC7047416470472DE9F04102
:101C700004460D461746984641F66946C0F24006AE
:101C8000B04720462946069A41F6CD36C0F24006B6
:101C9000B047B8F1000F01D0256500E065650FB1D0
:101CA000256300E0656325612560BDE8F08100BF24
:101CB00070B504460D46164641F66943C0F240032E
:101CC00098472046294606F0010241F6CD33C0F27E
:101CD0004003984716F00A0F14BF2562656216F09C
:101CE000020F18BFC4F8805004D116F0080F18BFB7
:101CF000C4F884506561256070BD00BFC06C70473A
:101D0000806C70474FEA501303F5001303F207731A
:101D10004FEA432300F01F004FF0010202FA00F0E7
:101D2000186370474FEA501303F5001303F207736B
:101D30004FEA432300F01F004FF0010202FA00F0C7
:101D4000586370472DE9F04182B00D464FEA5016B6
:101D500006F5001606F207764FEA462601F0F04433
:101D6000B4F1005F64D00AD8B4F1805F2CD0B4F134
:101D7000C05F43D0B4F1006F40F09D800AE0B4F141
:101D8000405F7ED0B4F1605F7BD0B4F1205F40F063
:101D9000928067E000F01F034FF0010707FA03F895
:101DA00030464FF00061424641F6D934C0F240045B
:101DB000A0473046414605EA070241F6CD33C0F25E
:101DC00040039847384678E000F01F034FF00107C2
:101DD00007FA03F830464FF08051424641F6D934B5
:101DE000C0F24004A0473046414605EA070241F6EA
:101DF000CD33C0F24003984738465EE000F01F0341
:101E00004FF0010707FA03F830464FF0C051424641
:101E100041F6D934C0F24004A0473046414605EAB5
:101E2000070241F6CD33C0F240039847384644E0FC
:101E300000F01F034FF0010707FA03F830464FF098
:101E40000051424641F6D934C0F24004A047304622
:101E5000414605EA070241F6CD33C0F240039847F8
:101E600038462AE000F01F014FF00104304604FA22
:101E700001F12A4641F6B143C0F24003984720469B
:101E80001BE000F01F034FF0010705F0605205EA68
:101E900007010091304607FA03F1B2F1605F14BF09
:101EA00000220122C5F3800341F66D44C0F24004D4
:101EB000A047384601E04FF0000002B0BDE8F081D5
:101EC000F8B504460E4641F6FD43C0F2400398477C
:101ED0000546204641F60153C0F2400398470540AD
:101EE00014D00B4C274654F80C3CB3420AD154F89A
:101EF000081C294206D023683046984754F8083C0D
:101F000025EA030504F11004002DEBD1F8BD00BF54
:101F10009804002008B54FF46060C4F20E004FF042
:101F20000B0141F6C163C0F24003984708BD00BFF2
:101F300008B54FF48050C4F20E004FF00C0141F68A
:101F4000C163C0F24003984708BD00BF08B54FF415
:101F50009050C4F20E004FF00D0141F6C163C0F283
:101F60004003984708BD00BF4FF48063C4F20E03DE
:101F70001A6B22F07002104318639B6E13F0080F67
:101F800002BF4FF400634FF48061C4F20E0103D02E
:101F900006E0013B00D125E08A6E12F0080FF8D070
:101FA0004FF48063C4F20E031A6B22F0030242F076
:101FB00002021A639B6E13F0080F02BF4FF4006316
:101FC0004FF48061C4F20E0105D04FF0000070475D
:101FD000013B00D109E08A6E12F0080FF8D04FF0F3
:101FE000000070474FF0010070474FF0010070474C
:101FF00080B14FF48061C4F20E010B6A4FF6FC729F
:10200000CFF6C8621A404FF00203C0F237131343F1
:102010000B6270474FF48063C4F20E031A6A22F415
:102020005C1222F0030242F45C1242F001024FEA19
:10203000016142EA114119624FF48062C4F20E025A
:10204000936E13F0010FFBD04FF48063C4F20E03C4
:102050001A6A42F09B7242F480321A62704700BFE3
:102060004FF48063C4F20E03986E00F48030704722
:102070004FF48063C4F20E034FF000529A6270472F
:102080004FF48063C4F20E03986E00F002007047B4
:10209000222835D81F2817D84FF48063C4F20E03C6
:1020A0009A694FF0010303FA00F31A4093422AD0D1
:1020B0004FF0010303FA00F04FF48063C4F20E0303
:1020C00018614FF0000070474FF48063C4F20E03B4
:1020D000D3F80821A0F120004FF0010303FA00F328
:1020E0001A40934212D04FF0010303FA00F04FF46C
:1020F0008063C4F20E03C3F800014FF00000704784
:102100004FF0010070474FF0000070474FF00000A3
:10211000704700BF21B1436843F00103436070473B
:10212000436823F001034360704700BFFEE700BF30
:1021300010B544F65042C0F2400240F20003C2F231
:1021400000039A4203D02A4B2A4A9A4204D32A4BCC
:102150002A4A9A4218D327E0294B2A4CE41A24F041
:10216000030404F104044FF0000340F20000C2F243
:10217000000044F65041C0F240015A581A5003F191
:102180000403A342F9D1E2E71F4B2049C91A21F009
:10219000030140F23C42C2F200028A184FF00001F3
:1021A00043F8041F9342FBD140F20003C0F2400306
:1021B00023F07F014FF46D42CEF20002916003F1F3
:1021C0006043B3F5003F3FBF4FF46D43CEF20003D1
:1021D0009A6842F0005238BF9A6044F20523C0F278
:1021E0004003984743F65573C0F240039847FEE713
:1021F0003C04002000000020840E00203C0400204D
:10220000040000203F040020380400207F0E00203E
:102210004FF48063C4F20E031B6B03F00303032B24
:1022200000F2A980DFE803F002144F4F41F210439F
:10223000C4F20E035B6913F0800F40F20003C2F298
:10224000000314BF4FF400424FF4FA421A6092E0C8
:102250004FF48063C4F20E031B6A13F0807F09D031
:1022600040F20003C2F200034FF4D852C0F2B702AA
:102270001A6080E040F20003C2F200034FF41062E3
:10228000C0F23D021A604FF48063C4F20E031B6A71
:1022900003F07003102B02D0202B6CD109E040F228
:1022A0000003C2F200034FF49052C0F27A021A60A7
:1022B00061E040F20003C2F200034FF4D852C0F2D2
:1022C000B7021A6057E04FF48063C4F20E031B6A32
:1022D00013F0807F09D040F20003C2F200034FF4F4
:1022E000D852C0F2B7021A6027E040F20003C2F2EF
:1022F00000034FF41062C0F23D021A604FF4806395
:10230000C4F20E031B6A03F07003102B02D0202BC3
:1023100013D109E040F20003C2F200034FF49052DF
:10232000C0F27A021A6008E040F20003C2F2000331
:102330004FF4D852C0F2B7021A604FF48063C4F26F
:102340000E031B6B03F00303022B4FF48063C4F2F4
:102350000E0307BF986A996AD86AD96A40F20003E7
:10236000C2F20003C0F30A401A6800FB0222C9B29D
:10237000B2FBF1F21A604FF48063C4F20E031B6BE0
:1023800003F07003702B0ED140F20003C2F2000381
:1023900019684AF6AB22CAF6AA22A2FB01024FEA4A
:1023A00052021A6070474FF48063C4F20E03196B37
:1023B00040F20003C2F20003C1F302111A6822FACC
:1023C00001F21A60704700BF42F6FF43C0F23113BA
:1023D000984207D84FF42063C4F20E034FF0000276
:1023E0001A60704745F6FF13C0F26223984207D87F
:1023F0004FF42063C4F20E034FF480721A607047EA
:1024000048F2FF63C0F29333984207D84FF4206339
:10241000C4F20E034FF400721A6070474BF2FF33A0
:10242000C0F2C443984207D84FF42063C4F20E03AD
:102430004FF440721A6070474EF2FF03C0F2F5533A
:1024400098424FF42063C4F20E0394BF4FF48062AD
:102450004FF4A0621A60704710B504464FF4A350C1
:10246000C4F20E004FF0000142F21513C0F2400317
:102470009847022C1BD8204641F22553C0F2400356
:102480009847032807D1204641F22553C0F2400364
:10249000984703280ED080B9204641F27553C0F208
:1024A00040039847002814BF0420002010BD4FF0BF
:1024B000010010BD4FF0010010BD4FF0010010BD34
:1024C00008B541F22553C0F24003984720B10228D5
:1024D0000CBF0320012008BD4FF0000008BD00BF65
:1024E0002DE9F04782B00646884617461D4641F260
:1024F0006954C0F24004A047044640B3304601A9E5
:1025000041F24553C0F24003984704FB0572019B1A
:1025100003FB04439A4288BF042020D8A946CDB1CA
:102520004FEA442A3C464FF00005C7EB080841F249
:102530009957C0F240073046214608EB0402B847DD
:1025400058B905F1010554444D45F4D307E04FF067
:10255000010004E04FF0000001E04FF0010002B084
:10256000BDE8F087037833B18B4204D010F8013F07
:102570000BB18B42FAD11846704700BFA1F102019E
:10258000C368A3F1020399423DBF8278C36902FB8D
:1025900001300020704700BF00F10B014FF0000335
:1025A0004FEA530242EAC31310F8012B52FA83F3A5
:1025B000DBB28842F4D11846704700BF08B588B135
:1025C000027892B1C2888A4212D1407842F2C14365
:1025D000C0F24003984700F00100002814BF032018
:1025E000002008BD4FF0090008BD4FF0090008BDEC
:1025F0004FF0090008BD00BF38B504460A464078D0
:1026000004F124014FF0010342F2E145C0F240051C
:10261000A84700283CD194F8232294F8223243EAB8
:10262000022212B24AF65523CFF6FF739A4232D1F4
:1026300094F85D2094F85C304FEA034343EA026269
:1026400094F85A30134394F85B2043EA022222F0B4
:102650007F4244F24613C0F254039A421ED094F8CB
:10266000790094F878304FEA034343EA006094F825
:102670007630034394F8770043EA002020F07F404F
:1026800044F24613C0F25403C01A18BF012038BDEB
:102690004FF0030038BD4FF0020038BD4FF000008E
:1026A00038BD00BF2DE9F04103681A78A2F130026D
:1026B000092A08D85C783A2C05D103F1020303609B
:1026C000002A40F0088140F20053C2F200031C6867
:1026D0000C60002C00F0038123784BB1607842F24B
:1026E000C143C0F24003984710F0010F00F0FB8097
:1026F0004FF000002070607042F25943C0F2400376
:10270000984710F0010F40F0F28020464FF0000192
:1027100042F2F953C0F240039847012818BF002540
:102720001BD194F8E631002B00F0E58094F8ED2100
:1027300094F8EC314FEA034343EA026294F8EA3139
:10274000134394F8EB5143EA05252046294642F20B
:10275000F953C0F240039847FFE7032800F0CF8009
:10276000002840F0D08094F8302094F82F3043EACD
:1027700002231BB2B3F5007F40F0C98094F83B0000
:1027800094F83A3053EA00200ED194F84B2094F894
:102790004A304FEA034343EA026294F84830134355
:1027A00094F8490043EA0020206194F83410E17065
:1027B00001F1FF33DBB2012B00F2AD8094F8313030
:1027C000A370002B00F0AB8003F1FF321A4240F0FF
:1027D000AA8094F8366094F8352042EA062296B230
:1027E000268112F00F0F40F0A28094F8387094F810
:1027F000372052EA07220ED194F8477094F8462009
:102800004FEA024242EA076794F844203A4394F8B8
:10281000457042EA072294F833C094F8327057EAC0
:102820000C2700F0888001FB00FC07EB16116144C7
:102830008A42C0F08480521AB2FBF3F3002B00F0FE
:10284000828040F6F57293428CBF022201224FF63D
:10285000F578434500F2878003F10203E3604919EC
:10286000E161ED196561032A14D1002E6FD194F84E
:10287000535094F852104FEA014141EA056594F82B
:102880005010294394F8515041EA0521A1614FEAC3
:1028900083030DE0002E5ED06544A561022A0FBFC0
:1028A0005B000321594303F0010318BF03EB5103FD
:1028B00003F2FF13B0EB532F51D322702F4A13882A
:1028C00003F101039BB21380E3804FF0000020620C
:1028D0002071BDE8F0814FF00B00BDE8F0814FF0B2
:1028E0000C00BDE8F0814FF00000BDE8F0814FF032
:1028F0000300BDE8F0814FF00D00BDE8F0814FF01E
:102900000100BDE8F0814FF00D00BDE8F0814FF00F
:102910000D00BDE8F0814FF00D00BDE8F0814FF0F3
:102920000D00BDE8F0814FF00D00BDE8F0814FF0E3
:102930000D00BDE8F0814FF00D00BDE8F0814FF0D3
:102940000D00BDE8F0814FF00D00BDE8F0814FF0C3
:102950000D00BDE8F0814FF00D00BDE8F0814FF0B3
:102960000D00BDE8F08103F10203E3604919E16164
:10297000ED1965614FF0030277E700BFFC0400200A
:1029800070B505460C46036A8B420ED081B1407883
:1029900005F1240122464FF0010342F2E146C0F264
:1029A0004006B04738B92C6270BD4FF0000070BDD2
:1029B0004FF0000070BD4FF0010070BDF8B5054646
:1029C0000C4601296ED9C36899426ED20378022B56
:1029D00033D0032B46D0012B6AD101EB510641695C
:1029E00001EB562142F68113C0F2400398470028BC
:1029F00061D14FEAC6534FEAD353EB1893F82470D2
:102A000006F101066969284601EB562142F6811359
:102A1000C0F240039847002850D14FEAC6564FEA0B
:102A2000D656AD1995F8240047EA002014F0010F9E
:102A300012BF00090005000DF8BD416901EB14212A
:102A400042F68113C0F240039847002839D14FEA7B
:102A5000046405EBD45595F8250095F8243043EA35
:102A60000020F8BD416901EBD41142F68113C0F298
:102A700040039847002827D14FEA446405EBD4551A
:102A800095F8270095F826304FEA034343EA0060A3
:102A900095F82430034395F8250043EA002020F000
:102AA0007040F8BD4FF00100F8BD4FF00100F8BDD7
:102AB0004FF0FF30F8BD4FF0FF30F8BD4FF0FF3062
:102AC000F8BD4FF0FF30F8BD4FF0FF30F8BD00BF4C
:102AD000F8B504460D46E1808168012942D00368BB
:102AE000DA68914241D279B91A78032A01D19969F9
:102AF00051B94FF00002E2601A89AA4238D99B69A5
:102B000003EB1513236122E09E784FEA0616B542C7
:102B100013D342F6BD17C0F240072068B8470146FC
:102B2000B0F1FF3F27D0012828D92368DB689842FD
:102B300027D2AD1BADB2AE42EFD9E160206842F2C0
:102B40007D53C0F24003984700EB1510206105F05B
:102B50000F05236803EB451303F1240363614FF072
:102B60000000F8BD4FF00200F8BD4FF00200F8BDC4
:102B70004FF00200F8BD4FF00100F8BD4FF0020029
:102B8000F8BD4FF00200F8BD70B50446C58805F1E8
:102B90000105ADB2002D36D00369002B36D015F0FB
:102BA0000F0626D103F101030361C16821B903684F
:102BB0001B89AB422DD91CE00068837803F1FF33F9
:102BC00013EA151315D142F6BD13C0F2400398471E
:102BD0000146012820D9B0F1FF3F20D02068C3680A
:102BE00099421FD2E16042F27D53C0F24003984700
:102BF0002061E580236803EB461303F1240363613E
:102C00004FF0000070BD4FF0040070BD4FF00400A5
:102C100070BD4FF0040070BD4FF0020070BD4FF06A
:102C2000010070BD4FF0040070BD00BF2DE9F843F6
:102C30000D4601F109040369002B60D0416991F848
:102C40000C800B78202B1BD00E46224604F1080C7A
:102C500008F00807FFB203E016F8013F202B0FD061
:102C6000052B08BFE52337B1A3F14104E4B2192CC9
:102C70009CBF2033DBB202F8013B14466245EBD126
:102C80000B7A202B23D023464FF02E0203F8012B82
:102C90000A7A202A1AD001F1080604F1040C08F07F
:102CA00010085FFA88F703E016F8012F202A0ED0EB
:102CB00037B1A2F14104E4B2192C9CBF2032D2B248
:102CC00003F8012B1C466345EED100E01C46CB7A8D
:102CD0002B72CA7F8B7F4FEA034343EA02630A7F6A
:102CE00013434A7F43EA02232B604A7E0B7E43EA6A
:102CF0000223AB80CA7D8B7D43EA0223EB804FF039
:102D000000032370AE698EB3EB697BB303694FF0A8
:102D1000000443B3028C4FF6FF739A4208BF0024AD
:102D200021D0C7693888B0B14FF00004A14643F6FE
:102D3000A508C0F240084946C04778B1EA6902F1E7
:102D4000FF32A2420DD9305504F1010437F8020FC9
:102D50000028F0D107E04FF0000404E04FF0000439
:102D600001E04FF000044FF000033355BDE8F88355
:102D70002DE9F04F8BB082468B460B782F2B18BF76
:102D80005C2B08BF01F1010B4FF0000383609BF83F
:102D900000301F2B0CD84FF0000142F6D123C0F2B7
:102DA0004003984707464FF00003CAF81430CBE2BF
:102DB00043F6A5031E46C0F2400644F2CC53C0F2CF
:102DC0004003059303F10C010791D9468346B246AF
:102DD00099F800302F2B18BF5C2B08D109F10103A3
:102DE000994613F8012B2F2A18BF5C2AF8D0DBF87C
:102DF0001C20019299F800002F2818BF1F2840D9E5
:102E00005C2800F04182A2F102074E464FF0010417
:102E1000A04644F2B853C0F24003029342F2655315
:102E20001D46C0F24005CDF80CB0CDF81090DDF88D
:102E30000890AB4607E05C2B00F02B82B2F5807F58
:102E400000F0478214464146D0470546002800F06E
:102E500040827F2805D848462946D847002840F0B8
:102E6000388227F8025F16F8013F184604F1010284
:102E70002F2B18BF1F2BDED8DDF80CB0DDF810901B
:102E800003E04FF000044FF0010291441F2898BF67
:102E9000042702D94FF00007FFE7002C00F0198249
:102EA00004F1FF33019931F813302E2B18BF202B7A
:102EB00040F0F58101EB440308E033F8042CA3F162
:102EC00002032E2A18BF202A40F0E981013CF4D1E8
:102ED000FFE103F8012B8B42FBD1019A1388202BD1
:102EE00018BF2E2B40F0E98111464FF0000505F187
:102EF000010531F8023F202B18BF2E2BF7D0002DF3
:102F000000F0DD8147F00307D9E1013C11D14FF01A
:102F1000080302934FF00008CDF80C8044F2C4532C
:102F2000C0F24003049342F26553C0F2400306939B
:102F300006E0A3F1020333F8022C2E2AE5D1E6E7DE
:102F4000019A32F8156005F10105002E63D0202E9C
:102F500008D0631B18BF01232E2E14BF002203F0DC
:102F6000010212B147F00307EAE70299AC4218BF29
:102F7000884516D30B2903D147F0030703994DE089
:102F80000BB147F00307AC4247D3039A4FEA8203E1
:102F9000DBB2039325464FF00B0302934FF0080872
:102FA000CEE77F2E10D930464FF00001D0470028E1
:102FB00000F0C78144F2DC53C0F240031B1813F841
:102FC000806C47F0020726B104983146069A904774
:102FD00020B147F003074FF05F0615E0A6F141036B
:102FE0009BB2192B04D8039B43F0020303930BE01D
:102FF000A6F161039BB2192B9FBF039941F0010118
:103000000391203E98BFB6B2DBF8183003F8086091
:1030100008F1010894E7039900E00399DBF8183000
:103020001A78E52A04BF05221A70029A082A02BFFC
:103030008900C9B20391039901F00C030C2B03D052
:1030400001F00302032A01D147F0020707F0020250
:10305000D2B252B9039901F00302012A08BF47F026
:103060001007042B08BF47F00807DBF81830DF72A1
:1030700058464FF0000142F6D123C0F24003984772
:103080000646002840F03A814FF0FF04274642F6FA
:1030900081139846C0F2400843F6F903C0F240039A
:1030A0000393CDF80490A146CDF808A0DBF800000A
:1030B000DBF81010C0470646002840F02281DBF8FC
:1030C00014402578002D00F02481E37A03F03F02BC
:1030D000E52D00F0A68003F00803DBB22BB10F2A28
:1030E00018BFFF2740F0A28001E00F2A73D1DBF860
:1030F0001C60002E00F09A8005F04003DBB243B163
:1031000094F80D9005F0BF05BBF80630ABF8203001
:1031100004E0BD4218BFFF2740F0888094F80DA05E
:10312000CA4518BFFF2740F08180237823F0400371
:1031300003F1FF3303EB430203EB82020892059A8B
:1031400002F1FF374FF001090995CDF810A04D4667
:10315000DDF82090CDF818B0DDF80CB0DDF81CA03B
:1031600017F8013FE2185078E35C43EA00208DB184
:10317000D8470546B9F1FE0F00F2AE8036F81900C7
:1031800009F10109D847854209D0DDF810A0DDF822
:1031900018B0AAE04FF6FF73984240F0A28057455E
:1031A000DED1DDF810A0CDF82090A946099DDDF80C
:1031B00018B0237803F04003DBB2002B00F09980B5
:1031C000B9F1000F00F09580089936F81130002B06
:1031D00000F08F8089E047B9204642F29953C0F24F
:1031E00040039847484500F099804FF6FF73ABF8CD
:1031F0002030DBF81830DA7A12F0010F04BF04F146
:10320000FF3403F10B0003D00EE0834200F08B800B
:1032100013F8012B14F8011F9142F6D04FF0FF076D
:1032200004E04FF0FF0701E04FF0FF0758464FF072
:10323000000142F68933C0F2400398470646002851
:103240003FF434AF0746DA465DE003F00403DFB233
:10325000002F0CBF0527042776E0DBF81430DA7A5C
:1032600002F01002D2B262B1597D1A7D42EA012207
:10327000D97E9B7E43EA012343EA0243CBF8083020
:10328000A6E54FF005075FE04FF000044FF00102A4
:1032900003E0DDF80CB0DDF810909144FAE5019AF6
:1032A00002EB44004FF0000322F81430DBF8183032
:1032B00003F10B014FF020020BE64FF0000504F183
:1032C000FF33019931F813302E2B3FF420AE034623
:1032D0001BE64FF0060737E0DDF810A0DDF818B068
:1032E00003E0DDF810A0DDF818B0D1464FF0FF077D
:1032F0009CE705F1FF35EFB2D14697E70746DA467E
:1033000001E00746DA46DAF81830DB7A042F1BD1E1
:103310009BE7DA46DBF81830DB7A96E7DDF80490B5
:10332000DDF808A003E0DDF80490DDF808A0DBF884
:103330001830DB7A03F00403DBB2002B8DD0374664
:1033400002E047F0020744E638460BB0BDE8F08FD4
:10335000A0B940F20053C2F200031B6813B14FF052
:1033600000021A7011B14FF000030B7040F20053CD
:10337000C2F2000319604FF0000070474FF00B00DD
:10338000704700BF30B5ADF50F7D0446019115467D
:103390004FF00002026001A885A942F2A563C0F2C5
:1033A0004003984782AB8B9302AB8C930346002873
:1033B00037D185A8019942F67153C0F2400398476E
:1033C0008A99034668BB39B3CA7A02F01002D2B2B6
:1033D0002ABB05F00105A571487D0A7D42EA00205F
:1033E000CD7E8A7E42EA052242EA00422261C87FFF
:1033F0008A7F4FEA024242EA0062087F0243497F25
:1034000042EA0122E2604FF00002A260A261859AC6
:103410002260D288A28004E04FF0060301E04FF062
:10342000040318460DF50F7D30BD00BF2DE9F04FA8
:1034300087B004460F4691461E464FF000033360A6
:103440000068A18842F2BD53C0F24003984780460D
:10345000002840F0C480A37913F0800F18BF4FF00C
:10346000020840F0BC8013F0010F08BF4FF00708BE
:1034700000F0B580E568A368ED1AA94538BF4D4650
:103480000195002D00F0AB8042F27D53C0F2400365
:10349000039342F2E143C0F24003049342F6BD13AA
:1034A000C0F240030593A2684FEAC2534FEAD353D8
:1034B000002B6AD12068837803F1FF3303EA52239B
:1034C00013F0FF0B19D10AB9206902E06169059D6B
:1034D000A847012806D8A37963F07F03A3714FF0B2
:1034E00002087CE0B0F1FF3F06D1A37963F07F03CF
:1034F000A3714FF0010872E06061D4F80090484673
:103500006169039DA847824630B9A37963F07F03C0
:10351000A3714FF0020862E000EB0B0A019D6D0AF7
:1035200002951CD099F8023005EB0B029A4284BF39
:10353000CBEB0303029399F8010039465246029DF2
:10354000EBB2049DA84730B1A37963F07F03A37168
:103550004FF0010843E0029D4FEA452B31E0A3699B
:10356000534510D099F8010004F11C0152464FF068
:103570000103049DA84730B1A37963F07F03A371D1
:103580004FF001082BE0C4F818A0A2684FEAC2521D
:103590004FEAD252C2F5007B019D5D4538BFAB4674
:1035A000A21802F11C02BBF1000F0AD002F1FF3297
:1035B00007EB0B003B4612F8011F03F8011B834287
:1035C000F9D15F44A3685B44A36033685B44336014
:1035D000019DB5EB0B0501957FF465AFFFE7404614
:1035E00007B0BDE8F08F00BF10B504460068A188A1
:1035F00042F2BD53C0F240039847034610B94FF062
:1036000000022260184610BD10B5ADF5067D0446D7
:10361000019101A821464FF0000242F2A563C0F2D9
:10362000400398470346002833D183ABA36103AB23
:10363000E3612046019942F67153C0F24003984776
:10364000034690B96369BBB1DA7A02F01002D2B2D4
:103650007AB1597D1A7D42EA0122D97E9B7E43EAE6
:10366000012343EA0243A36006E0042B08BF0523BD
:103670000FE04FF005030CE02368DB88A3802046B1
:103680004FF0000142F6D123C0F2400398470346B1
:10369000EBE718460DF5067D10BD00BF2DE9F04F94
:1036A000ADF50B7D04468B460068A18842F2BD5300
:1036B000C0F2400398470646002840F0ED80BBF179
:1036C000000F09D120464FF0000142F6D123C0F28D
:1036D000400398470646DFE087ABA36107ABE36191
:1036E0004FF0FF0A57464FF0040542F68118C0F22A
:1036F0004008D14644F2CC53C0F24003019303F199
:103700000C000290AC4645468AE02068A8478446F3
:10371000002840F08C8062691378002B00F0B9809B
:10372000D17AE52B18BF2E2B6ED001F03F0001F0AF
:103730000801C9B221B10F2818BF4F4666D101E078
:103740000F2853D103F04001C9B231B192F80DA056
:1037500003F0BF03E188218403E0BB4218BF4F465A
:1037600054D192F80DC0D44518BF4F464ED1E169EF
:103770000391117801F03F0101F1FF3101EB4107A5
:1037800001EB8707019800F1FF314FF001084FF678
:10379000FF7A0593234644460495039DDDF808E02F
:1037A000984611F8013FD0184078D35C43EA0020D6
:1037B0003CB1FE2F60D825F8170007F10107044639
:1037C00001E050455BD17145EBD1059B4446049D1A
:1037D000127802F04002D2B2002A55D0FE2F50D803
:1037E0004FF00002039921F817204DE0104665467E
:1037F00037B942F29953C0F240039847504521D05F
:103800004FF6FF7323841DE04F46FFE720464FF03D
:10381000000142F68933C0F240039847844640B91C
:10382000216900297FF471AF65465DB102E005466C
:1038300000E00546042D04BF0023236103D04FF0B0
:1038400000032361A5B92046594642F62D43C0F234
:103850004003984720464FF0000142F68933C0F2FA
:1038600040039847042804BF0023236114D001E0DB
:103870002E4611E006460FE04446049D01E0444612
:10388000049DE2464F46C1E703F1FF33DFB2E24653
:10389000BCE74FF00405CDE730460DF50B7DBDE8E4
:1038A000F08F00BF7F2826D941B9C7281EBF44F634
:1038B0003C02C0F2400201230BD114E0FF2818D8CB
:1038C00044F63C03C0F24003A0F1800033F810003E
:1038D000704732F8021F814207D003F101039BB207
:1038E000802BF6D101E04FF0000303F18000C0B25D
:1038F00070474FF00000704761280ED044F63C112D
:10390000C0F240014FF0000202F1010231F8023F23
:103910005BB18342F8D113B970474FF0000244F213
:103920005C63C0F2400333F81200704710B560BB0F
:1039300040F63000C2F2000040F67641C2F20001CB
:103940004FF0020240F67C63C2F2000343F22D44C2
:10395000C0F24004A04740F67443C2F2000318705E
:103960001B78002B41D140F63003C2F20003DA6825
:10397000A2F102029B68934243D940F63003C2F29F
:1039800000034FF000029A603BE0012830D140F67E
:103990004C20C2F2000040F67641C2F200014FF026
:1039A000020240F67043C2F2000343F22D44C0F21B
:1039B0004004A04740F67443C2F2000318701B781D
:1039C000CBB940F64C23C2F20003DA68A2F102023E
:1039D0009B68934212D940F64C23C2F200034FF089
:1039E00000029A604FF0010010BD4FF0040010BDBE
:1039F0004FF0010010BD4FF0040010BD4FF001006A
:103A000010BD4FF0010010BD2DE9F04F8BB0064600
:103A10000378732B18BF00205DD102A8314644F211
:103A20005123C0F24003984702A844F61C31C0F26B
:103A3000400144F26123C0F240039847002848D077
:103A40004FF000040194A24644F61C39C0F240092C
:103A5000A04644F26127C0F2400744F2C51BC0F201
:103A6000400B04F1010440464946B8470546012C85
:103A700003D1D8475FFA80FA04E0022C02D1D8477C
:103A800080B20190002DECD1019B002B18BFBAF140
:103A9000000F08BF00201ED0BAF10F0F88BF002012
:103AA00019D80AF1FF33C3EB031040F67C44C2F28D
:103AB000000404EB4000314644F25123C0F24003BD
:103AC000984704EB8A04019BC4F8C0314FF0010011
:103AD00001E04FF000000BB0BDE8F08F30B593B0BF
:103AE000014640F22C73C2F2000310934FF480732E
:103AF000119301A843F20963C0F2400398470246BC
:103B0000F8B943F29D64C0F2400443F60925C0F2BF
:103B1000400501A80AA9A047024690B99DF8313096
:103B20007BB12E2BF5D0109803780BB90DF1310035
:103B30009DF8303003F01003DBB2002BE9D1A84729
:103B4000E7E7104613B030BD40F67C43C2F20003F5
:103B500003EB8000D0F8C401003018BF012070478B
:103B600038B54FF01E0042F29103C0F2400398476F
:103B70004FF44044C4F20304204641F2C153C0F262
:103B80004003984720464FF0010141F2C953C0F26B
:103B90004003984720464FF000010A4641F2F9538E
:103BA000C0F24003984720464FF008014FF0000252
:103BB0004FF0100341F22965C0F24005A8472046A6
:103BC00041F2ED53C0F24003984720464FF0000108
:103BD00041F25D65C0F24005A84720464FF0010163
:103BE000A84720464FF4857141F27163C0F240034B
:103BF000984738BD30B440F67643C2F200031D88C2
:103C00001C88A4B2C5F3072343EA04239BB20380B4
:103C100003F47043C2F106024FEA420243FA02F390
:103C20000A7813430B7003884FEA03534FEA135388
:103C3000038030BC704700BF38B540F22A73C2F22F
:103C400000034FF000021A7040F66A43C2F200030C
:103C50001B78F3B1104643F62D13C0F2400398478A
:103C600040F22A75C2F2000540F22870C2F200004C
:103C700029464FF0000243F6F534C0F24004A04755
:103C800040F62C00C2F2000029464FF00102A04786
:103C900037E040F66843C2F200031B78ABB14FF047
:103CA000000043F62D13C0F24003984740F22870FD
:103CB000C2F2000040F22A71C2F200014FF000028D
:103CC00043F6F533C0F24003984740F66943C2F229
:103CD00000031B78ABB14FF0010043F62D13C0F287
:103CE0004003984740F62C00C2F2000040F22A71CF
:103CF000C2F200014FF0010243F6F533C0F2400377
:103D0000984740F68063C2F2000340F22872C2F284
:103D10000002118841F4005140F62C02C2F2000268
:103D2000128842F4805292B242EA01421A604FF085
:103D3000010038BD38B540F66B43C2F200031C7871
:103D40007CB104F1FF30C0B243F64933C0F2400306
:103D5000984730B140F66843C2F200034FF00102C9
:103D60001A7040F66C43C2F200031D787DB105F174
:103D7000FF30C0B243F64933C0F24003984730B138
:103D800040F66943C2F200034FF001021A7040F698
:103D90006843C2F200031B7853B940F66943C2F28C
:103DA00000031B78002B40F087804FF0000038BDE7
:103DB00040F66943C2F200031B78002B47D040F65F
:103DC0007C43C2F2000303EB840203EB8503D2F8C9
:103DD000C021D3F8C0319A4240F0AB80B5E004F185
:103DE000FF34C4EB041440F67C41C2F2000140F6FB
:103DF0003000C2F2000001EB44014FF0010243F237
:103E00008533C0F24003984740F67443C2F2000382
:103E100018701B78002B40F08F8040F67843C2F278
:103E2000000340F67C42C2F2000240F66B41C2F24F
:103E30000001097802EB8102D2F8C0211A6040F635
:103E40006A43C2F200034FF001021A7067E004F106
:103E5000FF34C4EB041440F67C41C2F2000140F68A
:103E60003000C2F2000001EB44014FF0010243F2C6
:103E70008533C0F24003984740F67443C2F2000312
:103E800018701B78002B5AD140F67843C2F2000319
:103E900040F67C42C2F2000240F66B41C2F20001E1
:103EA000097802EB8102D2F8C0211A6040F669431A
:103EB000C2F200031B7893B340F66C43C2F20003D6
:103EC000197801F1FF31C1EB011140F67C43C2F2D8
:103ED000000340F64C20C2F2000003EB41014FF01A
:103EE000010243F28533C0F24003984740F6744321
:103EF000C2F2000318701B7823BB40F67843C2F26D
:103F0000000340F67C42C2F2000240F66C41C2F26D
:103F10000001097802EB8102D2F8C0211A6043F651
:103F20003943C0F240039847002814BF0120042001
:103F300038BD4FF0020038BD4FF0030038BD4FF0E0
:103F4000030038BD4FF0030038BDAC427FF47FAFB3
:103F500045E700BF2DE9F84340F28113C0F240036A
:103F6000984741F2AD43C0F2400398474FF00B0031
:103F700042F29103C0F24003984743F66133C0F226
:103F80004003984740F22563C0F24003984741F64A
:103F90002559C0F2400940F26D25C0F2400540F2BB
:103FA0005168C0F2400840F67446C2F2000640F282
:103FB0000457C2F200074FF00000C8474FF000045A
:103FC0002046A8470028FBD1C04730704FF00000C2
:103FD000394643F25133C0F240039847307033788A
:103FE000002BE8D144F62030C0F2400043F6DD2338
:103FF000C0F24003984730704FF0060041F6055379
:10400000C0F24003984740F66B43C2F200034FF002
:1040100002021A7040F66C43C2F200034FF0030232
:104020001A7043F63553C0F240039847012864D113
:104030004FF0000041F60553C0F24003984740F6A8
:104040006843C2F200031B78E3B140F66943C2F251
:1040500000031B78B3B140F66A43C2F200031B7839
:1040600083B940F67843C2F200031A684CF2503329
:104070009A421CD940F67843C2F200034CF2503207
:104080001A6056E040F67843C2F2000345F690729B
:10409000C0F201021B68934209D940F67843C2F28C
:1040A000000345F69072C0F201021A6041E040F64A
:1040B0007842C2F200024FF46063C0F227731268C4
:1040C000B3FBF2F3B3F1807F1BD223F07F4303F104
:1040D000FF324EF21003CEF200035A604FF46D42ED
:1040E000CEF200024FF0F00182F823104FF00002F0
:1040F0009A604FF007021A6003E002287FF75BAF77
:1041000000E0FEE740F63000C2F2000043F2E9545E
:10411000C0F24004A04740F64C20C2F20000A04785
:104120004FF00000014643F25133C0F2400398477C
:1041300041E740F67842C2F200024FF46063C0F2F9
:1041400027731268B3FBF2F3BFE700BF08B54FF463
:104150004040C4F2030041F2E553C0F240039847E7
:1041600010F0010F26D040F68063C2F200034FF436
:104170004040C4F20300196841F2E953C0F2400321
:10418000984740F20403C2F200031B68596B40F2E7
:104190002A72C2F2000212786FEA020041EA40215C
:1041A0005963196B41EA42221A6343F63943C0F25C
:1041B0004003984708BD00BF014600200246034661
:1041C00000F020B900210A2200F00EB900220A23D3
:1041D00000F082B870B5094B094C0025E41AA41010
:1041E00003EB840602E072599047013C043D002C29
:1041F000F9D1BDE8704000F023BD00BF4C4C400039
:10420000504C400070B50E4B0E4D0024ED1AAD1011
:104210001E4603E056F8242090470134AC42F9D101
:1042200000F004FD084D094B0024ED1AAD101E46A8
:1042300003E056F8242090470134AC42F9D170BD18
:10424000384C4000384C4000404C4000384C400056
:10425000034611F8012B03F8012B002AF9D170470E
:10426000024B1A6801235C3200F002B808000020FB
:10427000F0B510B9106800282AD0044627463878CF
:1042800001340E4608E0A84206D1002BF6D1146096
:10429000384604F8013CF0BD16F8015B002DF2D160
:1042A000234608B91060F0BD13F8010B0F461E46F7
:1042B00017F8015B854208D118B1002103F8011CF1
:1042C00000E006461660601EF0BD002DF0D1EBE761
:1042D000F0BD0123FFF7CCBF2DE9F74F0190414816
:1042E000D0F800900846044614F8015B09EB050677
:1042F0007778204607F00807FFB2002FF3D12D2D65
:1043000003D114F8015B012704E02B2D04BF2446E0
:1043100014F8015B002B5ED0102B08D158E02078F8
:10432000782801D058284ED1657810230234002F08
:104330000CBF6FF000404FF00040B0FBF3FA0026D6
:1043400003FB1A08304609EB050C9CF801C00CF081
:10435000040B5FFA8BFBBBF1000F01D0303D0BE08B
:104360001CF0030C1BD0BCF1010F14BF4FF0570C15
:104370004FF0370CCCEB05059D4210DAB6F1FF3F4C
:104380000AD0504506D801D1454503DC03FB005057
:10439000012601E04FF0FF3614F8015BD3E7731CF0
:1043A0000AD1002F01990CBF6FF000404FF0004080
:1043B00022230B6022B912E007B140427AB106B164
:1043C000611E11600BE03025002BB0D10823AEE751
:1043D000302DACD1A3E7302DA1D00A23A7E7BDE84B
:1043E000FE8F00BF3804002030B51346044A05464E
:1043F0000C46106829462246BDE83040FFF76CBFE6
:10440000080000202DE9F8439846234B06461C6817
:104410000F46D4F84801914618B904F5A670C4F8BF
:10442000480141681F2916DD1C4B1BB94FF0FF30B6
:10443000BDE8F8834FF4C870AFF300800028F5D0D2
:10444000D4F84811002545600160C4F84801C0F85F
:104450008851C0F88C51B6B14468012202FA04F2C6
:10446000D0F8881100EB84031143022EC3F8889022
:10447000C0F888111C46C3F8088104D1D0F88C31EB
:104480001A43C0F88C2143689A1C013340F822700B
:1044900043600020BDE8F883244B4000000000008A
:1044A000024B13B10248FFF787BE704700000000BF
:1044B000D5414000000000000A0000000C00000090
:1044C0000D0000000F0000001400000019000000A3
:1044D0001E00000023000000280000002D00000046
:1044E00032000000370000003C00000046000000E1
:1044F000500000000A00000064000000E803000013
:104500001027000000000000000000000000000074
:10451000000000000A0000000C0000000D00000078
:104520000F000000140000001A0000001E00000030
:1045300023000000280000002D00000034000000CF
:10454000370000003C000000460000005000000062
:10455000AD024000FD02400035034000650340000D
:10456000D50340004D04400088454000C102400092
:10457000110340004903400079034000ED0340006F
:1045800065044000A04540002253442F4D4D432078
:104590004361726420536C6F74203022000000006D
:1045A0002253442F4D4D43204361726420536C6F5E
:1045B0007420312200000000222A3A3C3E3F7C7FDA
:1045C000000000002B2C3B3D5B5D00000103050754
:1045D000090E10121416181C1E000000809A90B6C6
:1045E0008EB78F80D2D3D4D8D7DE8E8F909292E2BE
:1045F00099E3EAEB59999A9D9C9D9E9FB5D6E0E977
:10460000A5A5A6A7A8A9AAABAC21AEAFB0B1B2B37D
:10461000B4B5B6B7B8B9BABBBCBDBEBFC0C1C2C3E2
:10462000C4C5C7C7C8C9CACBCCCDCECFD0D1D2D3D1
:10463000D4D5D6D7D8D9DADBDCDDDEDFE0E1E2E3C2
:10464000E5E5E6E7E7E9EAEBEDEDEEEFF0F1F2F3B1
:10465000F4F5F6F7F8F9FAFBFCFDFEFF4100420025
:1046600043004400450046004700480049004A0016
:104670004B004C004D004E004F00500051005200C6
:1046800053005400550056005700580059005A0076
:104690002100E0FFE1FFE5FFE2FFE3FFC000C10012
:1046A000C200C300C400C500C600C700C800C900DE
:1046B000CA00CB00CC00CD00CE00CF00D000D1008E
:1046C000D200D300D400D500D600D800D900DA003B
:1046D000DB00DC00DD00DE007801000102010401E6
:1046E000060108010A010C010E011001120114015A
:1046F000160118011A011C011E01200122012401CA
:10470000260128012A012C012E0130013201340139
:10471000360139013B013D013F01410143014501A2
:1047200047014A014C014E0150015201540156010A
:1047300058015A015C015E01600162016401660179
:1047400068016A016C016E017001720174017601E9
:1047500079017B017D0191019103920393039403FD
:10476000950396039703980399039A039B039C036D
:104770009D039E039F03A003A103A303A403A5031A
:10478000A603A703A803A903AA0310041104120493
:1047900013041404150416041704180419041A0445
:1047A0001B041C041D041E041F04200421042204F5
:1047B00023042404250426042704280429042A04A5
:1047C0002B042C042D042E042F04010402040304E2
:1047D0000404050406040704080409040A040B047D
:1047E0000C040E040F046021612162216321642105
:1047F000652166216721682169216A216B216C216D
:104800006D216E216F2121FF22FF23FF24FF25FF51
:1048100026FF27FF28FF29FF2AFF2BFF2CFF2DFF54
:104820002EFF2FFF30FF31FF32FF33FF34FF35FF04
:1048300036FF37FF38FF39FF3AFF0000C700FC00A2
:10484000E900E200E400E000E500E700EA00EB0038
:10485000E800EF00EE00EC00C400C500C900E6006F
:10486000C600F400F600F200FB00F900FF00D600DD
:10487000DC00F800A300D800D7009201E100ED00B1
:10488000F300FA00F100D100AA00BA00BF00AE00A8
:10489000AC00BD00BC00A100AB00BB00912592257F
:1048A000932502252425C100C200C000A90063256C
:1048B000512557255D25A200A50010251425342576
:1048C0002C251C2500253C25E300C3005A25542532
:1048D00069256625602550256C25A400F000D000D0
:1048E000CA00CB00C8003101CD00CE00CF00182592
:1048F0000C2588258425A600CC008025D300DF0068
:10490000D400D200F500D500B500FE00DE00DA00CC
:10491000DB00D900FD00DD00AF00B400AD00B10048
:104920001720BE00B600A700F700B800B000A8002E
:10493000B700B900B300B200A025A000610062007A
:1049400063006400650066006700680069006A0033
:104950006B006C006D006E006F00700071007200E3
:1049600073007400750076007700780079007A0093
:10497000A100A200A300A500AC00AF00E000E10090
:10498000E200E300E400E500E600E700E800E900FB
:10499000EA00EB00EC00ED00EE00EF00F000F100AB
:1049A000F200F300F400F500F600F800F900FA0058
:1049B000FB00FC00FD00FE00FF00010103010501FA
:1049C000070109010B010D010F011101130115016F
:1049D000170119011B011D011F01210123012501DF
:1049E000270129012B012D012F013101330135014F
:1049F00037013A013C013E014001420144014601B8
:104A000048014B014D014F0151015301550157011F
:104A100059015B015D015F0161016301650167018E
:104A200069016B016D016F017101730175017701FE
:104A30007A017C017E019201B103B203B303B40396
:104A4000B503B603B703B803B903BA03BB03BC038A
:104A5000BD03BE03BF03C003C103C303C403C50337
:104A6000C603C703C803C903CA03300431043204B0
:104A700033043404350436043704380439043A0462
:104A80003B043C043D043E043F0440044104420412
:104A900043044404450446044704480449044A04C2
:104AA0004B044C044D044E044F045104520453046F
:104AB0005404550456045704580459045A045B041A
:104AC0005C045E045F0470217121722173217421E2
:104AD000752176217721782179217A217B217C210A
:104AE0007D217E217F2141FF42FF43FF44FF45FF9F
:104AF00046FF47FF48FF49FF4AFF4BFF4CFF4DFF72
:104B00004EFF4FFF50FF51FF52FF53FF54FF55FF21
:104B100056FF57FF58FF59FF5AFF00005F00000083
:104B20002F00000010000020430000202020202043
:104B3000202020202828282828202020202020204D
:104B4000202020202020202020202088101010103D
:104B50001010101010101010101010040404040491
:104B600004040404041010101010101041414141BD
:104B700041410101010101010101010101010101A5
:104B800001010101010110101010101042424242B7
:104B90004242020202020202020202020202020275
:104BA0000202020202021010101020000000000099
:104BB00000000000000000000000000000000000F5
:104BC00000000000000000000000000000000000E5
:104BD00000000000000000000000000000000000D5
:104BE00000000000000000000000000000000000C5
:104BF00000000000000000000000000000000000B5
:104C000000000000000000000000000000000000A4
:104C10000000000000000000000000000000000094
:104C2000000000000000000000000000F8B500BF18
:104C3000F8BC08BC9E467047A144400049014000B2
:104C4000F8B500BFF8BC08BC9E4670472101400083
:104C500000093D00000E0E40100000200000000082
:104C600000000000FC02002064030020CC030020B0
:104C70000000000000000000000000000000000034
:104C80000000000000000000000000000000000024
:104C900000000000284B4000000000000000000061
:104CA0000000000000000000000000000000000004
:104CB00000000000000000000000000000000000F4
:104CC00000000000000000000000000000000000E4
:104CD00000000000000000000000000000000000D4
:104CE00000000000000000000000000000000000C4
:104CF00000000000000000000000000000000000B4
:104D000000000000000000000100000000000000A2
:104D10000E33CDAB34126DE6ECDE05000B00000067
:104D20000000000000000000000000000000000083
:104D30000000000000000000000000000000000073
:104D40000000000000000000000000000000000063
:104D50000000000000000000000000000000000053
:0C50800000000000000000002A4B40006F
:040000050040213165
:00000001FF
